:0300000002099C56
:0C099C00787FE4F6D8FD7581280209E39D
:030B4C00DFFE22A7
:100ABA00AD07AC06ED1DAE0470011C4E600C7FF54F
:0B0ACA00120B4C7FF5120B4C80EA224F
:100AEF00AB07AF031BEF60097F607EEA120ABA8083
:020AFF00F122E2
:100B0100AB07AF031BEF60097FE87E03120ABA80CF
:020B1100F122CF
:100B1300AA07AF021AEF60077F3C120AEF80F322A5
:1008FE0006020305020103020205020201030206BB
:10090E0002010502010602040302020502010602AB
:10091E0001050202030202010201060101050201A4
:10092E000302010202040202030302010502020590
:10093E000201060201030202020202010204050282
:10094E00030302010202010102010601010102017B
:10095E00050106000000F2F3F5F5F6F7F8F9F9FADD
:10096E00FAFBFBFCFCFCFDFDFDFDFEFEFEFEFEFEAD
:10097E00FEFF42C117B6D0D1B621E18CD868E95B33
:0E098E008FEE446BB4F42D4777A2B6DAFA165A
:100A2800438901D2AFD2A9E4F524E524C3946450E4
:100A3800F6E5249008FF9375F007A4FFE5249008D5
:100A4800FE932F14F52590096493F522E525900966
:100A58008093F523E52490090093F5217403252458
:070A6800F524120B3280C3DC
:020AD5008F266A
:100AD700E4F527E527C39526500B7FFA7E00120A17
:070AE700BA052780EEC28C66
:010AEE0022E5
:0D0B320085228C85238AD28CAF21020AD542
:03000B00020B3FA6
:0D0B3F00C28CB29285228C85238AD28C3222
:100A9A0001160001150201201901130001140009B1
:0F0AAA0017FFFDF7DF7FFEFBEFBF03107FBF3F9E
:0F0B2300438910E4F58DF58BD2AFD2ABD28E2281
:10080000120B23D2B6D2B774172515F8E6F58080FF
:100810007AE516640270030208A420B6547F0A7EAB
:1008200000120ABA20B64A30B6FDE5167014051556
:10083000E515B4050375150174172515F8E6F5805F
:10084000802FE51664017029E5147005751401F513
:10085000200520E520B43C03E4F520C374FF952077
:10086000F5A063A0FF74102516F8E6F442A063A07B
:10087000FF20B79D7F0A7E00120ABA20B79330B7D7
:10088000FD0516E515B40403751602C374FF952023
:10089000F5A063A0FF74102516F8E6F442A063A04B
:1008A000FF0208117580FF75A0FFE515B40107AFC1
:1008B00020120B018042E515B40204AF208036E51A
:1008C00015B40307AF20120B13802DE515640470D7
:1008D0002775200AC374FF9520F5A063A0FF74104C
:1008E0002516F8E6F442A063A0FF8519807580FF05
:0E08F00075A0FF7F0A120AEF751301020A2895
:03001B00020A6F67
:070A6F00C0E0C0D075D00803
:100A7600758D00758B00E513B401140528741725D0
:0F0A860028F8E6F580F5A0E528B40803752800E8
:050A9500D0D0D0E032DA
:1009A800020800E493A3F8E493A34003F68001F25D
:1009B80008DFF48029E493A3F85407240CC8C33350
:1009C800C4540F4420C8834004F456800146F6DF1F
:1009D800E4800B0102040810204080900A9AE47E0B
:1009E800019360BCA3FF543F30E509541FFEE49314
:1009F800A360010ECF54C025E060A840B8E493A3DB
:100A0800FAE493A3F8E493A3C8C582C8CAC583CA05
:100A1800F0A3C8C582C8CAC583CADFE9DEE780BEBD
:010AB900003C
:00000001FF
