:030000000201FBFF
:0C01FB00787FE4F6D8FD75811102024205
:0C02F60002100000020E01F4020C03E8EC
:10000E00E511F4F5A0C3E50D950FFFE50C950EFE79
:10001E00AC10AD1112011BE4C39FFFE49EFE7401F0
:10002E009400FDE49400FCE4FB7A01F9F8120287D7
:10003E008E088F09AC10AD11AE0EAF0F12011BE47E
:10004E00C39FFFE49EFE74019400FDE49400FCE463
:10005E00FB7A01F9F8120287AE02AF038E0A8F0BFC
:10006E0020B6517F0A7E001202CB20B62030B6FD9C
:10007E00E51164644510600D0511E511700205105F
:10008E001202E6802F75100075110180277FF47E15
:10009E00011202CB20B61D30B6FD7464250FF50F8C
:1000AE00E4350EF50EE50FB44C0AE50EB40405E486
:1000BE00F50EF50F30B70302000E7F0A7E00120216
:1000CE00CB20B72030B7FDE51164014510600DE57A
:1000DE00111511700215101202E6800F75100075C1
:1000EE00116480077FF47E011202CB30B703020049
:1000FE000E749C250FF50F74FF350EF50E450F602F
:0D010E000302000E750E03750FE802000ECF
:1002E60043890185098C850B8AD2AFD2A9D28C228B
:03000B00020303EA
:0903030085098C850B8AB2903249
:03000300DFFE22FB
:1002CB00AD07AC06ED1DAE0470011C4E600C7FF546
:0B02DB001200037FF512000380EA22EE
:0100060022D7
:1002070002000EE493A3F8E493A34003F68001F2FF
:1002170008DFF48029E493A3F85407240CC8C333F8
:10022700C4540F4420C8834004F456800146F6DFC7
:10023700E4800B01020408102040809002F6E47E5F
:10024700019360BCA3FF543F30E509541FFEE493BC
:10025700A360010ECF54C025E060A840B8E493A383
:10026700FAE493A3F8E493A3C8C582C8CAC583CAAE
:10027700F0A3C8C582C8CAC583CADFE9DEE780BE66
:0103020000FA
:10011B00EF8DF0A4A8F0CF8CF0A428CE8DF0A42EF8
:02012B00FE22B2
:10028700C2D5E830E70FB2D5E4C39BFBE49AFAE4A2
:1002970099F9E498F8EC30E717B2D51202BD1201CC
:1002A70069E4C39BFBE49AFAE499F9E498F88003BC
:1002B70012016930D50DE4C39FFFE49EFEE49DFD66
:0402C700E49CFC2295
:10012D0075F008758200EF2FFFEE33FECD33CDCC89
:10013D0033CCC58233C5829BED9AEC99E58298400C
:10014D000CF582EE9BFEED9AFDEC99FC0FD5F0D6E9
:10015D00E4CEFBE4CDFAE4CCF9A88222B800C1B913
:10016D000059BA002DEC8BF084CFCECDFCE5F0CB51
:10017D00F97818EF2FFFEE33FEED33FDEC33FCEB8A
:10018D0033FB10D703994004EB99FB0FD8E5E4F945
:10019D00FA227818EF2FFFEE33FEED33FDEC33FC32
:1001AD00C933C910D7059BE99A4007EC9BFCE99A26
:1001BD00F90FD8E0E4C9FAE4CCFB2275F010EF2F6B
:1001CD00FFEE33FEED33FDCC33CCC833C810D7076B
:1001DD009BEC9AE899400AED9BFDEC9AFCE899F8A6
:0E01ED000FD5F0DAE4CDFBE4CCFAE4C8F92239
:00000001FF
