:0300000002000EED
:0C000E00787FE4F6D8FD758117020055DC
:08017B000212000A021000004C
:10009A00E4F514F515F516F51712016BA2B6E4335B
:1000AA00751400F515451460F37F0A120158A2B6BB
:1000BA00E433751400F51545146034E517451670D8
:1000CA001A740A2513F513E43512F512E51364645C
:1000DA004512701BF516751701801474F62513F571
:1000EA001374FF3512F51245137004F516F517E56A
:1000FA0015451460A7A2B6E433751400F51580EF10
:10016B00438901758CFF758ACED2AFD2A9D28C226E
:03000B0002010AE5
:07010A00C0E0C0D075D00871
:10011100758CFF758ACE0511E51170020510D39516
:1001210013E5126480F8E5106480985004C2A2803F
:1001310002D2A2D3E5139464E51264809480400650
:10014100751200751300E511646445107004F51013
:02015100F511A6
:05015300D0D0D0E03225
:03000300DFFE22FB
:10015800AE071EEE600C7FF51200037FF512000358
:0301680080F02202
:10001A0002009AE493A3F8E493A34003F68001F262
:10002A0008DFF48029E493A3F85407240CC8C333E7
:10003A00C4540F4420C8834004F456800146F6DFB6
:10004A00E4800B010204081020408090017BE47ECA
:10005A00019360BCA3FF543F30E509541FFEE493AB
:10006A00A360010ECF54C025E060A840B8E493A372
:10007A00FAE493A3F8E493A3C8C582C8CAC583CA9D
:10008A00F0A3C8C582C8CAC583CADFE9DEE780BE55
:01018300007B
:00000001FF
