:1008000006020305020103020205020201030206B9
:1008100002010502010602040302020502010602AA
:1008200001050202030202010201060101050201A3
:10083000030201020204020203030201050202058F
:100840000201060201030202020202010204050281
:10085000030302010202010102010601010102017A
:10086000050106000000F2F3F5F5F6F7F8F9F9FADC
:10087000FAFBFBFCFCFCFDFDFDFDFEFEFEFEFEFEAC
:10088000FEFF42C117B6D0D1B621E18CD868E95B32
:0E0890008FEE446BB4F42D4777A2B6DAFA1659
:0309D000DFFE2225
:10096100AD07AC06ED1DAE0470011C4E600C7FF5A9
:0B0971001209D07FF51209D080EA22A5
:10097C00AB07AA06EB1BAE0270011A4E60097F6032
:08098C007EEA12096180ED22F0
:1008F600E4F580F5A01209357580FF75A0FFE509BE
:1009060070087580FE7F19FE800CE509B4010A7532
:10091600A0FE7F0A7E0012097C7580FF75A0FFC2CB
:0F092600927F641209D0D2927F641209D080F0C0
:02099400AB07AF
:10099600E4FAEAC39B500A7FFA7E001209610A80D4
:0309A600F1C28C0F
:0109A900222B
:03000B000209AA3D
:0D09AA00C28CB292850A8C850B8AD28C32E9
:0D09B700850A8C850B8AD28CAF080209944A
:10089E00438901D2AFD2A9E50970057580AA8008F7
:1008AE00E509B4010375A0D7E4F50DE50DC3946415
:1008BE0050E5E50D9008019375F007A4FFE50D9046
:1008CE000800932F14F50C90086693F50AE50C902A
:1008DE00088293F50BE50D90080293F50874032535
:0808EE000DF50D1209B780C3DE
:10093500D2B6D2B720B6117F0A7E0012096120B661
:100945000730B6FDE4F5092220B7E97F0A7E0012DB
:0B095500096120B7DF30B7FD75090114
:010960002274
:030000000209C42E
:0C09C400787FE4F6D8FD75810D0208F67E
:00000001FF
