:1008000006020305020103020205020201030206B9
:1008100002010502010602040302020502010602AA
:1008200001050202030202010201060101050201A3
:10083000030201020204020203030201050202058F
:100840000201060201030202020202010204050281
:10085000030302010202010102010601010102017A
:10086000050106000000F2F3F5F5F6F7F8F9F9FADC
:10087000FAFBFBFCFCFCFDFDFDFDFEFEFEFEFEFEAC
:10088000FEFF42C117B6D0D1B621E18CD868E95B32
:0E0890008FEE446BB4F42D4777A2B6DAFA1659
:0309C300DFFE2232
:10095400AD07AC06ED1DAE0470011C4E600C7FF5B6
:0B0964001209C37FF51209C380EA22CC
:10096F00AB07AA06EB1BAE0270011A4E60097F603F
:08097F007EEA12095480ED220A
:1008F600E4F580F5A01209287580FF75A0FFE509CB
:1009060070087580FE7F19FE800CE509B4010A7532
:10091600A0FE7F0A7E0012096F7580FF75A0FF0298
:02092600089E29
:02098700AB07BC
:10098900E4FAEAC39B500A7FFA7E001209540A80EE
:03099900F1C28C1C
:01099C002238
:03000B0002099D4A
:0D099D00C28CB292850A8C850B8AD28C32F6
:0D09AA00850A8C850B8AD28CAF0802098764
:10089E00438901D2AFD2A9E50970057580AA8008F7
:1008AE00E509B4010375A0D7E4F50DE50DC3946415
:1008BE0050E5E50D9008019375F007A4FFE50D9046
:1008CE000800932F14F50C90086693F50AE50C902A
:1008DE00088293F50BE50D90080293F50874032535
:0808EE000DF50D1209AA80C3EB
:10092800D2B6D2B720B6117F0A7E0012095420B67B
:100938000730B6FDE4F5092220B7E97F0A7E0012E8
:0B094800095420B7DF30B7FD7509012E
:010953002281
:030000000209B73B
:0C09B700787FE4F6D8FD75810E0208F68A
:00000001FF
